{"bytecode":"60c060405234801561001057600080fd5b50604051610aca380380610aca833981810160405260a081101561003357600080fd5b5080516020820151604083015160608085015160809586015184831b6001600160601b031990811660a0529284901b909216909552600780546802b5e3af16b1880000600255600680546001600160a01b03199081166001600160a01b03988916179091553391161760ff60a01b1916600160a01b17905560039490945560049390935591811691166109ec6100de600039806103f7528061058552508061055652506109ec6000f3fe6080604052600436106100865760003560e01c80638144799911610059578063814479991461010f57806388ab139a1461014557806394985ddd1461015a578063e97dcb621461018a578063f71d96cb1461019257610086565b806309bc33a71461008b5780631593a8c7146100b2578063160344e2146100c95780634f8c70cf146100de575b600080fd5b34801561009757600080fd5b506100a06101bc565b60408051918252519081900360200190f35b3480156100be57600080fd5b506100c761026a565b005b3480156100d557600080fd5b506100c7610335565b3480156100ea57600080fd5b506100f36103c7565b604080516001600160a01b039092168252519081900360200190f35b34801561011b57600080fd5b506101246103d6565b6040518082600281111561013457fe5b815260200191505060405180910390f35b34801561015157600080fd5b506100a06103e6565b34801561016657600080fd5b506100c76004803603604081101561017d57600080fd5b50803590602001356103ec565b6100c7610477565b34801561019e57600080fd5b506100f3600480360360208110156101b557600080fd5b503561052b565b600080600660009054906101000a90046001600160a01b03166001600160a01b031663feaf968c6040518163ffffffff1660e01b815260040160a06040518083038186803b15801561020d57600080fd5b505afa158015610221573d6000803e3d6000fd5b505050506040513d60a081101561023757600080fd5b50602001516002549091506402540be4008202906000908290670de0b6b3a7640000028161026157fe5b04935050505090565b6000600754600160a01b900460ff16600281111561028457fe5b146102d6576040805162461bcd60e51b815260206004820152601860248201527f43616e6e6f7420636c6f736520746865206c6f74746572790000000000000000604482015290519081900360640190fd5b6007805460ff60a01b1916600160a11b1790556004546003546000916102fb91610552565b6040805182815290519192507fe5f5b44d72d4143c278eb745c4acc0695c4a5bc616be5beecf46abe29661780e919081900360200190a150565b6007546001600160a01b0316331461034c57600080fd5b6001600754600160a01b900460ff16600281111561036657fe5b146103b8576040805162461bcd60e51b815260206004820152601960248201527f43616e27742073746172742061206e6577206c6f747465727900000000000000604482015290519081900360640190fd5b6007805460ff60a01b19169055565b6005546001600160a01b031681565b600754600160a01b900460ff1681565b60025481565b336001600160a01b037f00000000000000000000000000000000000000000000000000000000000000001614610469576040805162461bcd60e51b815260206004820152601f60248201527f4f6e6c7920565246436f6f7264696e61746f722063616e2066756c66696c6c00604482015290519081900360640190fd5b6104738282610705565b5050565b6000600754600160a01b900460ff16600281111561049157fe5b1461049b57600080fd5b6104a36101bc565b3410156104e8576040805162461bcd60e51b815260206004820152600e60248201526d09cdee840cadcdeeaced0408aa8960931b604482015290519081900360640190fd5b6001805480820182556000919091527fb10e2d527612073b26eecdfd717e6a320cf44b4afac2b0732d9fcbe2b7fa0cf60180546001600160a01b03191633179055565b6001818154811061053857fe5b6000918252602090912001546001600160a01b0316905081565b60007f00000000000000000000000000000000000000000000000000000000000000006001600160a01b0316634000aea07f00000000000000000000000000000000000000000000000000000000000000008486600060405160200180838152602001828152602001925050506040516020818303038152906040526040518463ffffffff1660e01b815260040180846001600160a01b0316815260200183815260200180602001828103825283818151815260200191508051906020019080838360005b8381101561062f578181015183820152602001610617565b50505050905090810190601f16801561065c5780820380516001836020036101000a031916815260200191505b50945050505050602060405180830381600087803b15801561067d57600080fd5b505af1158015610691573d6000803e3d6000fd5b505050506040513d60208110156106a757600080fd5b50506000838152602081905260408120546106c79085908390309061085e565b6000858152602081905260409020549091506106e49060016108a5565b6000858152602081905260409020556106fd8482610906565b949350505050565b6002600754600160a01b900460ff16600281111561071f57fe5b14610769576040805162461bcd60e51b81526020600482015260156024820152741653d548105491481393d508151211549148165155605a1b604482015290519081900360640190fd5b600081116107b3576040805162461bcd60e51b815260206004820152601260248201527172616e646f6d206e6f7420646566696e657360701b604482015290519081900360640190fd5b60015460009082816107c157fe5b069050600181815481106107d157fe5b6000918252602082200154600580546001600160a01b0319166001600160a01b0392831617908190556040519116914780156108fc02929091818181858888f19350505050158015610827573d6000803e3d6000fd5b50604080516000815260208101918290525161084591600191610932565b50506007805460ff60a01b1916600160a01b1790555050565b60408051602080820196909652808201949094526001600160a01b039290921660608401526080808401919091528151808403909101815260a09092019052805191012090565b6000828201838110156108ff576040805162461bcd60e51b815260206004820152601b60248201527f536166654d6174683a206164646974696f6e206f766572666c6f770000000000604482015290519081900360640190fd5b9392505050565b604080516020808201949094528082019290925280518083038201815260609092019052805191012090565b828054828255906000526020600020908101928215610987579160200282015b8281111561098757825182546001600160a01b0319166001600160a01b03909116178255602090920191600190910190610952565b50610993929150610997565b5090565b5b808211156109935780546001600160a01b031916815560010161099856fea26469706673582212204fa4114853ae081c113ca6bf3fb7fecc24cb077667b90bcf197652e48b11d2aa64736f6c634300060c0033","bytecodeSha1":"13614769a2761d0b7d679fc20ce859f9f1abcce3","type":"contract","abi":[{"inputs":[{"internalType":"address","name":"_priceFeedAddress","type":"address"},{"internalType":"address","name":"_vrfCoordinator","type":"address"},{"internalType":"address","name":"_link","type":"address"},{"internalType":"uint256","name":"_fee","type":"uint256"},{"internalType":"bytes32","name":"_keyhash","type":"bytes32"}],"stateMutability":"nonpayable","type":"constructor","name":"constructor"},{"anonymous":false,"inputs":[{"indexed":false,"internalType":"bytes32","name":"requestId","type":"bytes32"}],"name":"RequestedRandomness","type":"event"},{"inputs":[],"name":"endLottery","outputs":[],"stateMutability":"nonpayable","type":"function"},{"inputs":[],"name":"enter","outputs":[],"stateMutability":"payable","type":"function"},{"inputs":[],"name":"getEntranceFee","outputs":[{"internalType":"uint256","name":"","type":"uint256"}],"stateMutability":"view","type":"function"},{"inputs":[],"name":"lottery_state","outputs":[{"internalType":"enum Lottery.LOTTERY_STATE","name":"","type":"uint8"}],"stateMutability":"view","type":"function"},{"inputs":[{"internalType":"uint256","name":"","type":"uint256"}],"name":"players","outputs":[{"internalType":"address payable","name":"","type":"address"}],"stateMutability":"view","type":"function"},{"inputs":[{"internalType":"bytes32","name":"requestId","type":"bytes32"},{"internalType":"uint256","name":"randomness","type":"uint256"}],"name":"rawFulfillRandomness","outputs":[],"stateMutability":"nonpayable","type":"function"},{"inputs":[],"name":"recentWinner","outputs":[{"internalType":"address payable","name":"","type":"address"}],"stateMutability":"view","type":"function"},{"inputs":[],"name":"startLottery","outputs":[],"stateMutability":"nonpayable","type":"function"},{"inputs":[],"name":"usdEntryFee","outputs":[{"internalType":"uint256","name":"","type":"uint256"}],"stateMutability":"view","type":"function"}],"compiler":{"version":"0.6.12+commit.27d51765","evm_version":"istanbul","optimizer":{"enabled":true,"runs":200}},"contractName":"Lottery","language":"Solidity","natspec":{"methods":{},"kind":"dev","version":1},"opcodes":"PUSH1 0x80 PUSH1 0x40 MSTORE PUSH1 0x4 CALLDATASIZE LT PUSH2 0x86 JUMPI PUSH1 0x0 CALLDATALOAD PUSH1 0xE0 SHR DUP1 PUSH4 0x81447999 GT PUSH2 0x59 JUMPI DUP1 PUSH4 0x81447999 EQ PUSH2 0x10F JUMPI DUP1 PUSH4 0x88AB139A EQ PUSH2 0x145 JUMPI DUP1 PUSH4 0x94985DDD EQ PUSH2 0x15A JUMPI DUP1 PUSH4 0xE97DCB62 EQ PUSH2 0x18A JUMPI DUP1 PUSH4 0xF71D96CB EQ PUSH2 0x192 JUMPI PUSH2 0x86 JUMP JUMPDEST DUP1 PUSH4 0x9BC33A7 EQ PUSH2 0x8B JUMPI DUP1 PUSH4 0x1593A8C7 EQ PUSH2 0xB2 JUMPI DUP1 PUSH4 0x160344E2 EQ PUSH2 0xC9 JUMPI DUP1 PUSH4 0x4F8C70CF EQ PUSH2 0xDE JUMPI JUMPDEST PUSH1 0x0 DUP1 REVERT JUMPDEST CALLVALUE DUP1 ISZERO PUSH2 0x97 JUMPI PUSH1 0x0 DUP1 REVERT JUMPDEST POP PUSH2 0xA0 PUSH2 0x1BC JUMP JUMPDEST PUSH1 0x40 DUP1 MLOAD SWAP2 DUP3 MSTORE MLOAD SWAP1 DUP2 SWAP1 SUB PUSH1 0x20 ADD SWAP1 RETURN JUMPDEST CALLVALUE DUP1 ISZERO PUSH2 0xBE JUMPI PUSH1 0x0 DUP1 REVERT JUMPDEST POP PUSH2 0xC7 PUSH2 0x26A JUMP JUMPDEST STOP JUMPDEST CALLVALUE DUP1 ISZERO PUSH2 0xD5 JUMPI PUSH1 0x0 DUP1 REVERT JUMPDEST POP PUSH2 0xC7 PUSH2 0x335 JUMP JUMPDEST CALLVALUE DUP1 ISZERO PUSH2 0xEA JUMPI PUSH1 0x0 DUP1 REVERT JUMPDEST POP PUSH2 0xF3 PUSH2 0x3C7 JUMP JUMPDEST PUSH1 0x40 DUP1 MLOAD PUSH1 0x1 PUSH1 0x1 PUSH1 0xA0 SHL SUB SWAP1 SWAP3 AND DUP3 MSTORE MLOAD SWAP1 DUP2 SWAP1 SUB PUSH1 0x20 ADD SWAP1 RETURN JUMPDEST CALLVALUE DUP1 ISZERO PUSH2 0x11B JUMPI PUSH1 0x0 DUP1 REVERT JUMPDEST POP PUSH2 0x124 PUSH2 0x3D6 JUMP JUMPDEST PUSH1 0x40 MLOAD DUP1 DUP3 PUSH1 0x2 DUP2 GT ISZERO PUSH2 0x134 JUMPI INVALID JUMPDEST DUP2 MSTORE PUSH1 0x20 ADD SWAP2 POP POP PUSH1 0x40 MLOAD DUP1 SWAP2 SUB SWAP1 RETURN JUMPDEST CALLVALUE DUP1 ISZERO PUSH2 0x151 JUMPI PUSH1 0x0 DUP1 REVERT JUMPDEST POP PUSH2 0xA0 PUSH2 0x3E6 JUMP JUMPDEST CALLVALUE DUP1 ISZERO PUSH2 0x166 JUMPI PUSH1 0x0 DUP1 REVERT JUMPDEST POP PUSH2 0xC7 PUSH1 0x4 DUP1 CALLDATASIZE SUB PUSH1 0x40 DUP2 LT ISZERO PUSH2 0x17D JUMPI PUSH1 0x0 DUP1 REVERT JUMPDEST POP DUP1 CALLDATALOAD SWAP1 PUSH1 0x20 ADD CALLDATALOAD PUSH2 0x3EC JUMP JUMPDEST PUSH2 0xC7 PUSH2 0x477 JUMP JUMPDEST CALLVALUE DUP1 ISZERO PUSH2 0x19E JUMPI PUSH1 0x0 DUP1 REVERT JUMPDEST POP PUSH2 0xF3 PUSH1 0x4 DUP1 CALLDATASIZE SUB PUSH1 0x20 DUP2 LT ISZERO PUSH2 0x1B5 JUMPI PUSH1 0x0 DUP1 REVERT JUMPDEST POP CALLDATALOAD PUSH2 0x52B JUMP JUMPDEST PUSH1 0x0 DUP1 PUSH1 0x6 PUSH1 0x0 SWAP1 SLOAD SWAP1 PUSH2 0x100 EXP SWAP1 DIV PUSH1 0x1 PUSH1 0x1 PUSH1 0xA0 SHL SUB AND PUSH1 0x1 PUSH1 0x1 PUSH1 0xA0 SHL SUB AND PUSH4 0xFEAF968C PUSH1 0x40 MLOAD DUP2 PUSH4 0xFFFFFFFF AND PUSH1 0xE0 SHL DUP2 MSTORE PUSH1 0x4 ADD PUSH1 0xA0 PUSH1 0x40 MLOAD DUP1 DUP4 SUB DUP2 DUP7 DUP1 EXTCODESIZE ISZERO DUP1 ISZERO PUSH2 0x20D JUMPI PUSH1 0x0 DUP1 REVERT JUMPDEST POP GAS STATICCALL ISZERO DUP1 ISZERO PUSH2 0x221 JUMPI RETURNDATASIZE PUSH1 0x0 DUP1 RETURNDATACOPY RETURNDATASIZE PUSH1 0x0 REVERT JUMPDEST POP POP POP POP PUSH1 0x40 MLOAD RETURNDATASIZE PUSH1 0xA0 DUP2 LT ISZERO PUSH2 0x237 JUMPI PUSH1 0x0 DUP1 REVERT JUMPDEST POP PUSH1 0x20 ADD MLOAD PUSH1 0x2 SLOAD SWAP1 SWAP2 POP PUSH5 0x2540BE400 DUP3 MUL SWAP1 PUSH1 0x0 SWAP1 DUP3 SWAP1 PUSH8 0xDE0B6B3A7640000 MUL DUP2 PUSH2 0x261 JUMPI INVALID JUMPDEST DIV SWAP4 POP POP POP POP SWAP1 JUMP JUMPDEST PUSH1 0x0 PUSH1 0x7 SLOAD PUSH1 0x1 PUSH1 0xA0 SHL SWAP1 DIV PUSH1 0xFF AND PUSH1 0x2 DUP2 GT ISZERO PUSH2 0x284 JUMPI INVALID JUMPDEST EQ PUSH2 0x2D6 JUMPI PUSH1 0x40 DUP1 MLOAD PUSH3 0x461BCD PUSH1 0xE5 SHL DUP2 MSTORE PUSH1 0x20 PUSH1 0x4 DUP3 ADD MSTORE PUSH1 0x18 PUSH1 0x24 DUP3 ADD MSTORE PUSH32 0x43616E6E6F7420636C6F736520746865206C6F74746572790000000000000000 PUSH1 0x44 DUP3 ADD MSTORE SWAP1 MLOAD SWAP1 DUP2 SWAP1 SUB PUSH1 0x64 ADD SWAP1 REVERT JUMPDEST PUSH1 0x7 DUP1 SLOAD PUSH1 0xFF PUSH1 0xA0 SHL NOT AND PUSH1 0x1 PUSH1 0xA1 SHL OR SWAP1 SSTORE PUSH1 0x4 SLOAD PUSH1 0x3 SLOAD PUSH1 0x0 SWAP2 PUSH2 0x2FB SWAP2 PUSH2 0x552 JUMP JUMPDEST PUSH1 0x40 DUP1 MLOAD DUP3 DUP2 MSTORE SWAP1 MLOAD SWAP2 SWAP3 POP PUSH32 0xE5F5B44D72D4143C278EB745C4ACC0695C4A5BC616BE5BEECF46ABE29661780E SWAP2 SWAP1 DUP2 SWAP1 SUB PUSH1 0x20 ADD SWAP1 LOG1 POP JUMP JUMPDEST PUSH1 0x7 SLOAD PUSH1 0x1 PUSH1 0x1 PUSH1 0xA0 SHL SUB AND CALLER EQ PUSH2 0x34C JUMPI PUSH1 0x0 DUP1 REVERT JUMPDEST PUSH1 0x1 PUSH1 0x7 SLOAD PUSH1 0x1 PUSH1 0xA0 SHL SWAP1 DIV PUSH1 0xFF AND PUSH1 0x2 DUP2 GT ISZERO PUSH2 0x366 JUMPI INVALID JUMPDEST EQ PUSH2 0x3B8 JUMPI PUSH1 0x40 DUP1 MLOAD PUSH3 0x461BCD PUSH1 0xE5 SHL DUP2 MSTORE PUSH1 0x20 PUSH1 0x4 DUP3 ADD MSTORE PUSH1 0x19 PUSH1 0x24 DUP3 ADD MSTORE PUSH32 0x43616E27742073746172742061206E6577206C6F747465727900000000000000 PUSH1 0x44 DUP3 ADD MSTORE SWAP1 MLOAD SWAP1 DUP2 SWAP1 SUB PUSH1 0x64 ADD SWAP1 REVERT JUMPDEST PUSH1 0x7 DUP1 SLOAD PUSH1 0xFF PUSH1 0xA0 SHL NOT AND SWAP1 SSTORE JUMP JUMPDEST PUSH1 0x5 SLOAD PUSH1 0x1 PUSH1 0x1 PUSH1 0xA0 SHL SUB AND DUP2 JUMP JUMPDEST PUSH1 0x7 SLOAD PUSH1 0x1 PUSH1 0xA0 SHL SWAP1 DIV PUSH1 0xFF AND DUP2 JUMP JUMPDEST PUSH1 0x2 SLOAD DUP2 JUMP JUMPDEST CALLER PUSH1 0x1 PUSH1 0x1 PUSH1 0xA0 SHL SUB PUSH32 0x0 AND EQ PUSH2 0x469 JUMPI PUSH1 0x40 DUP1 MLOAD PUSH3 0x461BCD PUSH1 0xE5 SHL DUP2 MSTORE PUSH1 0x20 PUSH1 0x4 DUP3 ADD MSTORE PUSH1 0x1F PUSH1 0x24 DUP3 ADD MSTORE PUSH32 0x4F6E6C7920565246436F6F7264696E61746F722063616E2066756C66696C6C00 PUSH1 0x44 DUP3 ADD MSTORE SWAP1 MLOAD SWAP1 DUP2 SWAP1 SUB PUSH1 0x64 ADD SWAP1 REVERT JUMPDEST PUSH2 0x473 DUP3 DUP3 PUSH2 0x705 JUMP JUMPDEST POP POP JUMP JUMPDEST PUSH1 0x0 PUSH1 0x7 SLOAD PUSH1 0x1 PUSH1 0xA0 SHL SWAP1 DIV PUSH1 0xFF AND PUSH1 0x2 DUP2 GT ISZERO PUSH2 0x491 JUMPI INVALID JUMPDEST EQ PUSH2 0x49B JUMPI PUSH1 0x0 DUP1 REVERT JUMPDEST PUSH2 0x4A3 PUSH2 0x1BC JUMP JUMPDEST CALLVALUE LT ISZERO PUSH2 0x4E8 JUMPI PUSH1 0x40 DUP1 MLOAD PUSH3 0x461BCD PUSH1 0xE5 SHL DUP2 MSTORE PUSH1 0x20 PUSH1 0x4 DUP3 ADD MSTORE PUSH1 0xE PUSH1 0x24 DUP3 ADD MSTORE PUSH14 0x9CDEE840CADCDEEACED0408AA89 PUSH1 0x93 SHL PUSH1 0x44 DUP3 ADD MSTORE SWAP1 MLOAD SWAP1 DUP2 SWAP1 SUB PUSH1 0x64 ADD SWAP1 REVERT JUMPDEST PUSH1 0x1 DUP1 SLOAD DUP1 DUP3 ADD DUP3 SSTORE PUSH1 0x0 SWAP2 SWAP1 SWAP2 MSTORE PUSH32 0xB10E2D527612073B26EECDFD717E6A320CF44B4AFAC2B0732D9FCBE2B7FA0CF6 ADD DUP1 SLOAD PUSH1 0x1 PUSH1 0x1 PUSH1 0xA0 SHL SUB NOT AND CALLER OR SWAP1 SSTORE JUMP JUMPDEST PUSH1 0x1 DUP2 DUP2 SLOAD DUP2 LT PUSH2 0x538 JUMPI INVALID JUMPDEST PUSH1 0x0 SWAP2 DUP3 MSTORE PUSH1 0x20 SWAP1 SWAP2 KECCAK256 ADD SLOAD PUSH1 0x1 PUSH1 0x1 PUSH1 0xA0 SHL SUB AND SWAP1 POP DUP2 JUMP JUMPDEST PUSH1 0x0 PUSH32 0x0 PUSH1 0x1 PUSH1 0x1 PUSH1 0xA0 SHL SUB AND PUSH4 0x4000AEA0 PUSH32 0x0 DUP5 DUP7 PUSH1 0x0 PUSH1 0x40 MLOAD PUSH1 0x20 ADD DUP1 DUP4 DUP2 MSTORE PUSH1 0x20 ADD DUP3 DUP2 MSTORE PUSH1 0x20 ADD SWAP3 POP POP POP PUSH1 0x40 MLOAD PUSH1 0x20 DUP2 DUP4 SUB SUB DUP2 MSTORE SWAP1 PUSH1 0x40 MSTORE PUSH1 0x40 MLOAD DUP5 PUSH4 0xFFFFFFFF AND PUSH1 0xE0 SHL DUP2 MSTORE PUSH1 0x4 ADD DUP1 DUP5 PUSH1 0x1 PUSH1 0x1 PUSH1 0xA0 SHL SUB AND DUP2 MSTORE PUSH1 0x20 ADD DUP4 DUP2 MSTORE PUSH1 0x20 ADD DUP1 PUSH1 0x20 ADD DUP3 DUP2 SUB DUP3 MSTORE DUP4 DUP2 DUP2 MLOAD DUP2 MSTORE PUSH1 0x20 ADD SWAP2 POP DUP1 MLOAD SWAP1 PUSH1 0x20 ADD SWAP1 DUP1 DUP4 DUP4 PUSH1 0x0 JUMPDEST DUP4 DUP2 LT ISZERO PUSH2 0x62F JUMPI DUP2 DUP2 ADD MLOAD DUP4 DUP3 ADD MSTORE PUSH1 0x20 ADD PUSH2 0x617 JUMP JUMPDEST POP POP POP POP SWAP1 POP SWAP1 DUP2 ADD SWAP1 PUSH1 0x1F AND DUP1 ISZERO PUSH2 0x65C JUMPI DUP1 DUP3 SUB DUP1 MLOAD PUSH1 0x1 DUP4 PUSH1 0x20 SUB PUSH2 0x100 EXP SUB NOT AND DUP2 MSTORE PUSH1 0x20 ADD SWAP2 POP JUMPDEST POP SWAP5 POP POP POP POP POP PUSH1 0x20 PUSH1 0x40 MLOAD DUP1 DUP4 SUB DUP2 PUSH1 0x0 DUP8 DUP1 EXTCODESIZE ISZERO DUP1 ISZERO PUSH2 0x67D JUMPI PUSH1 0x0 DUP1 REVERT JUMPDEST POP GAS CALL ISZERO DUP1 ISZERO PUSH2 0x691 JUMPI RETURNDATASIZE PUSH1 0x0 DUP1 RETURNDATACOPY RETURNDATASIZE PUSH1 0x0 REVERT JUMPDEST POP POP POP POP PUSH1 0x40 MLOAD RETURNDATASIZE PUSH1 0x20 DUP2 LT ISZERO PUSH2 0x6A7 JUMPI PUSH1 0x0 DUP1 REVERT JUMPDEST POP POP PUSH1 0x0 DUP4 DUP2 MSTORE PUSH1 0x20 DUP2 SWAP1 MSTORE PUSH1 0x40 DUP2 KECCAK256 SLOAD PUSH2 0x6C7 SWAP1 DUP6 SWAP1 DUP4 SWAP1 ADDRESS SWAP1 PUSH2 0x85E JUMP JUMPDEST PUSH1 0x0 DUP6 DUP2 MSTORE PUSH1 0x20 DUP2 SWAP1 MSTORE PUSH1 0x40 SWAP1 KECCAK256 SLOAD SWAP1 SWAP2 POP PUSH2 0x6E4 SWAP1 PUSH1 0x1 PUSH2 0x8A5 JUMP JUMPDEST PUSH1 0x0 DUP6 DUP2 MSTORE PUSH1 0x20 DUP2 SWAP1 MSTORE PUSH1 0x40 SWAP1 KECCAK256 SSTORE PUSH2 0x6FD DUP5 DUP3 PUSH2 0x906 JUMP JUMPDEST SWAP5 SWAP4 POP POP POP POP JUMP JUMPDEST PUSH1 0x2 PUSH1 0x7 SLOAD PUSH1 0x1 PUSH1 0xA0 SHL SWAP1 DIV PUSH1 0xFF AND PUSH1 0x2 DUP2 GT ISZERO PUSH2 0x71F JUMPI INVALID JUMPDEST EQ PUSH2 0x769 JUMPI PUSH1 0x40 DUP1 MLOAD PUSH3 0x461BCD PUSH1 0xE5 SHL DUP2 MSTORE PUSH1 0x20 PUSH1 0x4 DUP3 ADD MSTORE PUSH1 0x15 PUSH1 0x24 DUP3 ADD MSTORE PUSH21 0x1653D548105491481393D508151211549148165155 PUSH1 0x5A SHL PUSH1 0x44 DUP3 ADD MSTORE SWAP1 MLOAD SWAP1 DUP2 SWAP1 SUB PUSH1 0x64 ADD SWAP1 REVERT JUMPDEST PUSH1 0x0 DUP2 GT PUSH2 0x7B3 JUMPI PUSH1 0x40 DUP1 MLOAD PUSH3 0x461BCD PUSH1 0xE5 SHL DUP2 MSTORE PUSH1 0x20 PUSH1 0x4 DUP3 ADD MSTORE PUSH1 0x12 PUSH1 0x24 DUP3 ADD MSTORE PUSH18 0x72616E646F6D206E6F7420646566696E6573 PUSH1 0x70 SHL PUSH1 0x44 DUP3 ADD MSTORE SWAP1 MLOAD SWAP1 DUP2 SWAP1 SUB PUSH1 0x64 ADD SWAP1 REVERT JUMPDEST PUSH1 0x1 SLOAD PUSH1 0x0 SWAP1 DUP3 DUP2 PUSH2 0x7C1 JUMPI INVALID JUMPDEST MOD SWAP1 POP PUSH1 0x1 DUP2 DUP2 SLOAD DUP2 LT PUSH2 0x7D1 JUMPI INVALID JUMPDEST PUSH1 0x0 SWAP2 DUP3 MSTORE PUSH1 0x20 DUP3 KECCAK256 ADD SLOAD PUSH1 0x5 DUP1 SLOAD PUSH1 0x1 PUSH1 0x1 PUSH1 0xA0 SHL SUB NOT AND PUSH1 0x1 PUSH1 0x1 PUSH1 0xA0 SHL SUB SWAP3 DUP4 AND OR SWAP1 DUP2 SWAP1 SSTORE PUSH1 0x40 MLOAD SWAP2 AND SWAP2 SELFBALANCE DUP1 ISZERO PUSH2 0x8FC MUL SWAP3 SWAP1 SWAP2 DUP2 DUP2 DUP2 DUP6 DUP9 DUP9 CALL SWAP4 POP POP POP POP ISZERO DUP1 ISZERO PUSH2 0x827 JUMPI RETURNDATASIZE PUSH1 0x0 DUP1 RETURNDATACOPY RETURNDATASIZE PUSH1 0x0 REVERT JUMPDEST POP PUSH1 0x40 DUP1 MLOAD PUSH1 0x0 DUP2 MSTORE PUSH1 0x20 DUP2 ADD SWAP2 DUP3 SWAP1 MSTORE MLOAD PUSH2 0x845 SWAP2 PUSH1 0x1 SWAP2 PUSH2 0x932 JUMP JUMPDEST POP POP PUSH1 0x7 DUP1 SLOAD PUSH1 0xFF PUSH1 0xA0 SHL NOT AND PUSH1 0x1 PUSH1 0xA0 SHL OR SWAP1 SSTORE POP POP JUMP JUMPDEST PUSH1 0x40 DUP1 MLOAD PUSH1 0x20 DUP1 DUP3 ADD SWAP7 SWAP1 SWAP7 MSTORE DUP1 DUP3 ADD SWAP5 SWAP1 SWAP5 MSTORE PUSH1 0x1 PUSH1 0x1 PUSH1 0xA0 SHL SUB SWAP3 SWAP1 SWAP3 AND PUSH1 0x60 DUP5 ADD MSTORE PUSH1 0x80 DUP1 DUP5 ADD SWAP2 SWAP1 SWAP2 MSTORE DUP2 MLOAD DUP1 DUP5 SUB SWAP1 SWAP2 ADD DUP2 MSTORE PUSH1 0xA0 SWAP1 SWAP3 ADD SWAP1 MSTORE DUP1 MLOAD SWAP2 ADD KECCAK256 SWAP1 JUMP JUMPDEST PUSH1 0x0 DUP3 DUP3 ADD DUP4 DUP2 LT ISZERO PUSH2 0x8FF JUMPI PUSH1 0x40 DUP1 MLOAD PUSH3 0x461BCD PUSH1 0xE5 SHL DUP2 MSTORE PUSH1 0x20 PUSH1 0x4 DUP3 ADD MSTORE PUSH1 0x1B PUSH1 0x24 DUP3 ADD MSTORE PUSH32 0x536166654D6174683A206164646974696F6E206F766572666C6F770000000000 PUSH1 0x44 DUP3 ADD MSTORE SWAP1 MLOAD SWAP1 DUP2 SWAP1 SUB PUSH1 0x64 ADD SWAP1 REVERT JUMPDEST SWAP4 SWAP3 POP POP POP JUMP JUMPDEST PUSH1 0x40 DUP1 MLOAD PUSH1 0x20 DUP1 DUP3 ADD SWAP5 SWAP1 SWAP5 MSTORE DUP1 DUP3 ADD SWAP3 SWAP1 SWAP3 MSTORE DUP1 MLOAD DUP1 DUP4 SUB DUP3 ADD DUP2 MSTORE PUSH1 0x60 SWAP1 SWAP3 ADD SWAP1 MSTORE DUP1 MLOAD SWAP2 ADD KECCAK256 SWAP1 JUMP JUMPDEST DUP3 DUP1 SLOAD DUP3 DUP3 SSTORE SWAP1 PUSH1 0x0 MSTORE PUSH1 0x20 PUSH1 0x0 KECCAK256 SWAP1 DUP2 ADD SWAP3 DUP3 ISZERO PUSH2 0x987 JUMPI SWAP2 PUSH1 0x20 MUL DUP3 ADD JUMPDEST DUP3 DUP2 GT ISZERO PUSH2 0x987 JUMPI DUP3 MLOAD DUP3 SLOAD PUSH1 0x1 PUSH1 0x1 PUSH1 0xA0 SHL SUB NOT AND PUSH1 0x1 PUSH1 0x1 PUSH1 0xA0 SHL SUB SWAP1 SWAP2 AND OR DUP3 SSTORE PUSH1 0x20 SWAP1 SWAP3 ADD SWAP2 PUSH1 0x1 SWAP1 SWAP2 ADD SWAP1 PUSH2 0x952 JUMP JUMPDEST POP PUSH2 0x993 SWAP3 SWAP2 POP PUSH2 0x997 JUMP JUMPDEST POP SWAP1 JUMP JUMPDEST JUMPDEST DUP1 DUP3 GT ISZERO PUSH2 0x993 JUMPI DUP1 SLOAD PUSH1 0x1 PUSH1 0x1 PUSH1 0xA0 SHL SUB NOT AND DUP2 SSTORE PUSH1 0x1 ADD PUSH2 0x998 JUMP INVALID LOG2 PUSH5 0x6970667358 0x22 SLT KECCAK256 0x4F LOG4 GT 0x48 MSTORE8 0xAE ADDMOD SHR GT EXTCODECOPY 0xA6 0xBF EXTCODEHASH 0xB7 INVALID 0xCC 0x24 0xCB SMOD PUSH23 0x67B90BCF197652E48B11D2AA64736F6C634300060C0033 ","sha1":"8cb074496b79ccbeb8da48a5b82794d6c087e9ef","source":"// SPDX-License-Identifier: MIT\npragma solidity ^0.6.6;\n\nimport \"@chainlink/contracts/src/v0.6/interfaces/AggregatorV3Interface.sol\";\nimport \"@chainlink/contracts/src/v0.6/VRFConsumerBase.sol\";\n\ncontract Lottery is VRFConsumerBase{\n\n    address payable[] public players;\n    uint256 public usdEntryFee;\n    uint256 fee;\n    bytes32 keyhash;\n    address payable public recentWinner;\n    AggregatorV3Interface internal ethUsdPriceFeed;\n\n    enum LOTTERY_STATE {\n        OPEN,\n        CLOSED,\n        CALCULATE_WINNER\n    }\n    address owner;\n    LOTTERY_STATE public lottery_state;\n    event RequestedRandomness(bytes32 requestId);\n\n    constructor (address _priceFeedAddress, address _vrfCoordinator, address _link, uint256 _fee, bytes32 _keyhash) \n    public VRFConsumerBase(_vrfCoordinator,_link)\n        {\n        owner = msg.sender;\n        usdEntryFee = 50 * (10**18) ;\n        ethUsdPriceFeed = AggregatorV3Interface(_priceFeedAddress);\n        lottery_state = LOTTERY_STATE.CLOSED;\n        fee = _fee;\n        keyhash = _keyhash;\n\n    }\n    function enter() public payable{\n        // 50$ minimum\n        require (lottery_state == LOTTERY_STATE.OPEN);\n        require(msg.value>=getEntranceFee(),\"Not enough ETH\");\n        players.push(msg.sender);\n    }\n\n    function getEntranceFee() public view returns (uint256){\n        (,int256 price,,,) = ethUsdPriceFeed.latestRoundData();\n        uint256 adjustedPrice = uint256(price)*(10**10);\n        uint256 costToEnter = (usdEntryFee *(10**18))/ adjustedPrice;\n        return costToEnter;\n\n    }\n\n    function startLottery() public {\n        require(msg.sender == owner);\n        require(lottery_state == LOTTERY_STATE.CLOSED, \"Can't start a new lottery\");\n        lottery_state = LOTTERY_STATE.OPEN;\n    }\n    \n\n    function endLottery() public {\n        // only owner can access this function\n        \n        require(lottery_state == LOTTERY_STATE.OPEN, \"Cannot close the lottery\" );\n        lottery_state= LOTTERY_STATE.CALCULATE_WINNER;\n        bytes32 requestId = requestRandomness(keyhash, fee);\n        emit RequestedRandomness(requestId);\n\n    }\n\n    function fulfillRandomness(bytes32 _requestId, uint256 _randomness) internal override\n    {\n        require(lottery_state == LOTTERY_STATE.CALCULATE_WINNER, \"YOU ARE NOT THERE YET\");\n        require(_randomness>0, \"random not defines\");\n        uint256 indexOfWinner = _randomness % players.length;\n        recentWinner = players[indexOfWinner];\n        recentWinner.transfer(address(this).balance);\n        // reset \n        players = new address payable[](0);\n        lottery_state = LOTTERY_STATE.CLOSED;\n    }\n\n}","sourcePath":"contracts/Lottery.sol","deployment":{"address":"0x4189A33D8AEd53bc32F299E2409063A2712a6359","chainid":"4","blockHeight":9877355}}